{
  "contractName": "SimpleStorage",
  "abi": [
    {
      "inputs": [],
      "stateMutability": "nonpayable",
      "type": "constructor"
    },
    {
      "anonymous": false,
      "inputs": [
        {
          "indexed": true,
          "internalType": "uint256",
          "name": "id",
          "type": "uint256"
        }
      ],
      "name": "TaskCompleted",
      "type": "event"
    },
    {
      "anonymous": false,
      "inputs": [
        {
          "indexed": true,
          "internalType": "uint256",
          "name": "id",
          "type": "uint256"
        },
        {
          "indexed": false,
          "internalType": "string",
          "name": "title",
          "type": "string"
        },
        {
          "indexed": false,
          "internalType": "string",
          "name": "location",
          "type": "string"
        },
        {
          "indexed": false,
          "internalType": "uint256",
          "name": "time",
          "type": "uint256"
        },
        {
          "indexed": false,
          "internalType": "uint256",
          "name": "notification",
          "type": "uint256"
        },
        {
          "indexed": false,
          "internalType": "uint256",
          "name": "dateCreated",
          "type": "uint256"
        },
        {
          "indexed": false,
          "internalType": "bool",
          "name": "completed",
          "type": "bool"
        }
      ],
      "name": "TaskCreated",
      "type": "event"
    },
    {
      "inputs": [],
      "name": "taskCount",
      "outputs": [
        {
          "internalType": "uint256",
          "name": "",
          "type": "uint256"
        }
      ],
      "stateMutability": "view",
      "type": "function",
      "constant": true
    },
    {
      "inputs": [
        {
          "internalType": "string",
          "name": "_title",
          "type": "string"
        },
        {
          "internalType": "string",
          "name": "_location",
          "type": "string"
        },
        {
          "internalType": "uint256",
          "name": "_time",
          "type": "uint256"
        },
        {
          "internalType": "uint256",
          "name": "_notification",
          "type": "uint256"
        }
      ],
      "name": "createTask",
      "outputs": [],
      "stateMutability": "nonpayable",
      "type": "function"
    },
    {
      "inputs": [],
      "name": "showTaskCount",
      "outputs": [
        {
          "internalType": "uint256",
          "name": "",
          "type": "uint256"
        }
      ],
      "stateMutability": "view",
      "type": "function",
      "constant": true
    },
    {
      "inputs": [
        {
          "internalType": "uint256",
          "name": "_id",
          "type": "uint256"
        }
      ],
      "name": "toggleCompleted",
      "outputs": [],
      "stateMutability": "nonpayable",
      "type": "function"
    }
  ],
  "bytecode": "0x60806040526000805534801561001457600080fd5b506102f5806100246000396000f3fe608060405234801561001057600080fd5b506004361061004c5760003560e01c80632a79f77f14610051578063455f50241461006f578063a4a268aa1461009d578063b6cb58a51461017f575b600080fd5b61005961019d565b6040518082815260200191505060405180910390f35b61009b6004803603602081101561008557600080fd5b81019080803590602001909291905050506101a6565b005b61017d600480360360808110156100b357600080fd5b81019080803590602001906401000000008111156100d057600080fd5b8201836020820111156100e257600080fd5b8035906020019184600183028401116401000000008311171561010457600080fd5b90919293919293908035906020019064010000000081111561012557600080fd5b82018360208201111561013757600080fd5b8035906020019184600183028401116401000000008311171561015957600080fd5b909192939192939080359060200190929190803590602001909291905050506101d6565b005b6101876102b9565b6040518082815260200191505060405180910390f35b60008054905090565b807fc1fa7142cfb933d0855114a3bffde296944c30b727f297c14d0db4d553d3a5c760405160405180910390a250565b600080815480929190600101919050557f8bdd333adac55168e7119ddc503b6d08b748c5f86035e1a5754375aa15e47356878787878787426000604051808060200180602001878152602001868152602001858152602001841515815260200183810383528b8b82818152602001925080828437600081840152601f19601f8201169050808301925050508381038252898982818152602001925080828437600081840152601f19601f8201169050808301925050509a505050505050505050505060405180910390a26000808154809291906001019190505550505050505050565b6000548156fea2646970667358221220c3bab54800c990dc38e63ab2f75180a943e0c6ebdd431310263bc993473e797364736f6c634300060c0033",
  "immutableReferences": {},
  "source": "// SPDX-License-Identifier: MIT\npragma solidity >=0.4.21 <0.7.0;\n\ncontract SimpleStorage {\n  uint public taskCount = 0;\n\n  \n\n  event TaskCreated(uint indexed id, string title, string location, uint time, uint notification, uint dateCreated, bool completed );\n  event TaskCompleted(uint indexed id);\n\n  constructor () public {\n  }\n\n  function createTask(string calldata _title, string calldata _location, uint _time, uint _notification) external {\n    emit TaskCreated(taskCount++, _title, _location, _time, _notification, now, false);\n    taskCount++;\n  }\n\n  function showTaskCount() public view returns(uint) {\n    return taskCount;\n  }\n\n  function toggleCompleted(uint _id) external  {\n    emit TaskCompleted(_id);\n  }\n\n\n}\n\n\n// pragma solidity >=0.5.0 <0.8.0;\n\n// contract SimpleStorage {\n//   uint public taskCount = 0;\n\n//   struct Task {\n//     uint id;\n//     string content;\n//     bool completed;\n//   }\n\n//   mapping (uint=>Task) public tasks;\n\n//   event TaskCreated(uint id, string content, bool completed );\n//   event TaskCompleted(uint id, bool completed);\n\n//   constructor () public {\n\n//     createTask(\"My First Successful Dapp\");\n    \n//   }\n\n//   function createTask(string memory _content) public {\n//     taskCount++;\n//     tasks[taskCount] = Task(taskCount, _content, false);\n//     emit TaskCreated(taskCount, _content, false);\n//   }\n\n//   function showTaskCount() public view returns(uint) {\n//     return taskCount;\n//   }\n\n//   function toggleCompleted(uint _id) public  {\n//     Task memory _task = tasks[_id];\n//     _task.completed = !_task.completed;\n//     tasks[_id] = _task;\n//     emit TaskCompleted(_id, _task.completed);\n//   }\n  \n\n// }\n",
  "sourcePath": "C:/Users/user/3D Objects/project/chain/todoApp/contracts/SimpleStorage.sol",
  "compiler": {
    "name": "solc",
    "version": "0.6.12+commit.27d51765.Emscripten.clang"
  },
  "schemaVersion": "3.2.4",
  "updatedAt": "2020-11-22T21:45:57.036Z",
  "networkType": "ethereum",
  "devdoc": {
    "kind": "dev",
    "methods": {},
    "version": 1
  },
  "userdoc": {
    "kind": "user",
    "methods": {},
    "version": 1
  }
}